:100000000C942A000C943F000C943F000C943F0089
:100010000C943F000C943F000C943F000C943F0064
:100020000C943F000C943F000C943F000C943F0054
:100030000C943F000C943F000C943F000C943F0044
:100040000C943F000C943F000C943F000C943F0034
:100050000C943F0011241FBECFE5D8E0DEBFCDBF1A
:1000600011E0A0E6B0E0E6E7F0E402C005900D92F2
:10007000A43EB107D9F70E94BB120C9439200C940E
:100080000000EF92FF920F931F937B018C0120E001
:1000900030E040E05FE40E94710388238CF0C801E7
:1000A000B70120E030E040E05FE40E94B9010E9427
:1000B0002F049B01AC01205030404040504806C006
:1000C000C801B7010E942F049B01AC01B901CA010C
:1000D0001F910F91FF90EF900895A0E0B0E0E3E74B
:1000E000F0E00C940220DC012B01FA019C9192308B
:1000F00008F439C1EB018881823008F433C19430AF
:1001000069F4843009F02FC111969C91119789816F
:10011000981709F428C1ABEDB0E025C1843009F48B
:1001200021C18230A9F4923009F01DC19A01AD01BC
:1001300088E0EA010990AE01E90109929E0181502F
:10014000C1F7E201898111969C918923818308C1BD
:10015000923009F407C112962D903C901397EB0151
:100160008A819B811496AD90BD90CD90DC901797BD
:10017000EC80FD800E811F819101281B390BB90194
:1001800037FF04C066277727621B730B6032710547
:100190000CF061C0121613066CF537014801062EEB
:1001A00004C096948794779467940A94D2F721E0D8
:1001B00030E040E050E004C0220F331F441F551FC1
:1001C0006A95D2F721503040404050402E213F21C7
:1001D00040235123211531054105510521F021E02E
:1001E00030E040E050E079018A01E628F72808294C
:1001F00019293CC0232BD1F1260E371E35014601AB
:10020000062E04C096948794779467940A94D2F744
:1002100021E030E040E050E004C0220F331F441FD3
:10022000551F6A95D2F721503040404050402A2156
:100230003B214C215D21211531054105510521F05E
:1002400021E030E040E050E059016A01A628B728DB
:10025000C828D9280BC0821593052CF01C01AA24AC
:10026000BB24650103C0EE24FF24870111969C91F5
:10027000D20111968C91981709F445C0992339F051
:10028000A80197012A193B094C095D0906C0A6017E
:1002900095012E193F09400B510B57FD08C01182E3
:1002A0003382228224833583468357831DC081E0B5
:1002B00081833382228288279927DC01821B930B5A
:1002C000A40BB50B84839583A683B7830DC0220F3F
:1002D000331F441F551F24833583468357838281F0
:1002E000938101979383828324813581468157814D
:1002F000DA01C9010197A109B1098F5F9F4FAF4F83
:10030000BF4328F30BC0918333822282EA0CFB1C8B
:100310000C1D1D1DE482F5820683178383E0808314
:10032000248135814681578157FF1AC0C901AA2708
:1003300097FDA095BA2F81709070A070B0705695FF
:10034000479537952795822B932BA42BB52B848328
:100350009583A683B7838281938101969383828359
:10036000DF0101C0D201CD01CDB7DEB7E2E10C94CF
:100370001E20A0E2B0E0EFEBF1E00C940E206983C8
:100380007A838B839C832D833E834F835887E9E058
:10039000EE2EF12CEC0EFD1ECE010196B7010E944F
:1003A000A7058E010F5E1F4FCE010596B8010E9472
:1003B000A7058A8991E089278A8BC701B801AE0118
:1003C000475E5F4F0E946D000E94D204A096E6E057
:1003D0000C942A20A0E2B0E0E0EFF1E00C940E20B3
:1003E00069837A838B839C832D833E834F835887D5
:1003F000F9E0EF2EF12CEC0EFD1ECE010196B701B7
:100400000E94A7058E010F5E1F4FCE010596B80111
:100410000E94A705C701B801AE01475E5F4F0E9469
:100420006D000E94D204A096E6E00C942A20A0E27F
:10043000B0E0EDE1F2E00C94022069837A838B83D3
:100440009C832D833E834F835887CE010196BE0146
:10045000675F7F4F0E94A705CE010596BE016F5EC4
:100460007F4F0E94A7059985923088F08989823054
:10047000C8F0943019F4823051F404C0843029F467
:10048000923081F48BED90E0C6C0923049F420E0C8
:100490009A858A89981321E02A87CE010996BBC0E4
:1004A000823049F420E09A858A89981321E02A8BCA
:1004B000CE014196B0C02D843E844F8458886D880B
:1004C0007E888F88988CEE24FF248701AA24BB2481
:1004D000650140E050E060E070E0E0E0F0E0C10184
:1004E00081709070892BE9F0E60CF71C081D191D2E
:1004F0009A01AB012A0D3B1D4C1D5D1D80E090E073
:10050000A0E0B0E0E614F7040805190520F481E046
:1005100090E0A0E0B0E0BA01A901480F591F6A1F9E
:100520007B1FAA0CBB1CCC1CDD1C97FE08C081E005
:1005300090E0A0E0B0E0A82AB92ACA2ADB2A3196C6
:10054000E032F10549F0660C771C881C991C569422
:10055000479437942794C3CFFA85EA892B893C893D
:100560008B859C85280F391F2E5F3F4F17C0CA010E
:1005700081709070892B61F016950795F794E79438
:1005800080E090E0A0E0B0E8E82AF92A0A2B1B2BD3
:1005900076956795579547952F5F3F4F77FDE7CF46
:1005A0000CC0440F551F661F771F17FD4160EE0CEE
:1005B000FF1C001F111F21503040403090E05907B0
:1005C00090E0690790E4790760F32B8F3C8FDB01A3
:1005D000CA018F779070A070B07080349105A1052A
:1005E000B10561F447FD0AC0E114F10401051105EC
:1005F00029F0405C5F4F6F4F7F4F40781A8EFE1797
:1006000011F081E08A8F4D8F5E8F6F8F78A383E02A
:10061000898FCE0149960E94D204A096E2E10C9403
:100620001E20A8E1B0E0E7E1F3E00C940E2069831E
:100630007A838B839C832D833E834F83588789E005
:10064000E82EF12CEC0EFD1ECE010196B7010E94A2
:10065000A7058E010F5E1F4FCE010596B8010E94BF
:10066000A7058985823040F08989823028F0C7014A
:10067000B8010E941F0601C081E06896E6E00C9474
:100680002A20A8E1B0E0E7E4F3E00C940E206983AF
:100690007A838B839C832D833E834F83588789E0A5
:1006A000E82EF12CEC0EFD1ECE010196B7010E9442
:1006B000A7058E010F5E1F4FCE010596B8010E945F
:1006C000A7058985823040F08989823028F0C701EA
:1006D000B8010E941F0601C08FEF6896E6E00C94F7
:1006E0002A20A8E1B0E0E7E7F3E00C940E2069834C
:1006F0007A838B839C832D833E834F83588789E045
:10070000E82EF12CEC0EFD1ECE010196B7010E94E1
:10071000A7058E010F5E1F4FCE010596B8010E94FE
:10072000A7058985823040F08989823028F0C70189
:10073000B8010E941F0601C08FEF6896E6E00C9496
:100740002A20A8E1B0E0E7EAF3E00C940E206983E8
:100750007A838B839C832D833E834F83588789E0E4
:10076000E82EF12CEC0EFD1ECE010196B7010E9481
:10077000A7058E010F5E1F4FCE010596B8010E949E
:10078000A7058985823040F08989823028F0C70129
:10079000B8010E941F0601C081E06896E6E00C9453
:1007A0002A20A8E0B0E0E7EDF3E00C940B209B01D9
:1007B000AC0183E08983DA01C9018827B7FD8395FD
:1007C0009927AA27BB27B82E2115310541055105C8
:1007D00019F482E089833AC08823A9F0203080E0B0
:1007E000380780E0480780E8580729F460E070E0A7
:1007F00080E09FEC30C0EE24FF248701E21AF30A68
:10080000040B150B02C079018A018EE1C82ED12C90
:10081000DC82CB82ED82FE820F831887C801B7018C
:100820000E94830401971816190684F4082E04C048
:10083000EE0CFF1C001F111F0A94D2F7ED82FE82FE
:100840000F831887C81AD90ADC82CB82BA82CE01FC
:1008500001960E94D2042896E9E00C942720ACE08F
:10086000B0E0E5E3F4E00C94122069837A838B8393
:100870009C83CE010196BE016B5F7F4F0E94A7054E
:100880008D81823061F1823050F1843021F48E818B
:10089000882351F12EC02F81388537FD20C06E810D
:1008A0002F3131051CF06623F9F023C08EE190E072
:1008B000821B930B29853A854B855C8504C0569530
:1008C0004795379527958A95D2F76623B1F05095CD
:1008D0004095309521953F4F4F4F5F4F0EC020E020
:1008E00030E040E050E009C02FEF3FEF4FEF5FE70F
:1008F00004C020E030E040E050E8B901CA012C9685
:10090000E2E00C942E20EF92FF920F931F937B0155
:100910008C0180E0E81680E0F80681E0080780E0BE
:10092000180788F48FEFE816F1040105110531F07E
:1009300028F088E090E0A0E0B0E017C080E090E010
:10094000A0E0B0E012C080E0E81680E0F80680E0A9
:10095000080781E0180728F088E190E0A0E0B0E007
:1009600004C080E190E0A0E0B0E020E230E040E0B0
:1009700050E0281B390B4A0B5B0B04C016950795FA
:10098000F794E7948A95D2F7F701ED51FF4F8081F4
:10099000281B310941095109C9011F910F91FF908D
:1009A000EF900895DF92EF92FF920F931F93FC0157
:1009B000E480F58006811781D1808081823048F4FF
:1009C00080E090E0A0E1B0E0E82AF92A0A2B1B2B96
:1009D000A5C0843009F49FC0823021F4EE24FF24A6
:1009E000870105C0E114F1040105110519F4E0E0E7
:1009F000F0E096C0628173819FEF623879070CF056
:100A00005BC022E83FEF261B370B2A3131052CF063
:100A100020E030E040E050E02AC0B801A701022EFB
:100A200004C076956795579547950A94D2F781E06B
:100A300090E0A0E0B0E004C0880F991FAA1FBB1F80
:100A40002A95D2F70197A109B1098E219F21A023F0
:100A5000B1230097A105B10521F081E090E0A0E06D
:100A6000B0E09A01AB01282B392B4A2B5B2BDA0122
:100A7000C9018F779070A070B07080349105A10586
:100A8000B10539F427FF09C0205C3F4F4F4F5F4F3E
:100A900004C0215C3F4F4F4F5F4FE0E0F0E020305B
:100AA000A0E03A07A0E04A07A0E45A0710F0E1E00E
:100AB000F0E079018A0127C06038710564F5FB0117
:100AC000E158FF4FD801C7018F779070A070B070C8
:100AD00080349105A105B10539F4E7FE0DC080E42D
:100AE00090E0A0E0B0E004C08FE390E0A0E0B0E0D0
:100AF000E80EF91E0A1F1B1F17FF05C01695079564
:100B0000F794E794319687E016950795F794E79464
:100B10008A95D1F705C0EE24FF248701EFEFF0E0BE
:100B20006E2F679566276795902F9F77D794DD2462
:100B3000D7948E2F8695492F462B582F5D29B701C4
:100B4000CA011F910F91FF90EF90DF900895FC0173
:100B5000DB01408151812281622F6F7770E0221F7B
:100B60002227221F9381892F880F822B282F30E084
:100B7000991F9927991F11969C931197211531055B
:100B8000A9F5411551056105710511F482E037C0E1
:100B900082E89FEF13969C938E9312979A01AB0174
:100BA00067E0220F331F441F551F6A95D1F783E07A
:100BB0008C930DC0220F331F441F551F12968D9129
:100BC0009C911397019713969C938E9312972030C4
:100BD00080E0380780E0480780E4580758F314960F
:100BE0002D933D934D935C93179708952F3F3105B7
:100BF00079F4411551056105710519F484E08C9370
:100C0000089564FF03C081E08C9312C01C9210C051
:100C10002F57304013963C932E93129783E08C937A
:100C200087E0440F551F661F771F8A95D1F77064C0
:100C300014964D935D936D937C93179708951F932E
:100C4000DC01FB019C91923008F447C08081823026
:100C500008F443C0943051F411961C91843099F5F6
:100C60008181682F70E0611B71093FC0843021F0E1
:100C7000923031F48230B9F18181882389F12DC01D
:100C800011961C9111978230F1F081811817D9F4D7
:100C900012962D913C91139782819381821793072D
:100CA00094F028173907BCF014968D919D910D9002
:100CB000BC91A02D248135814681578128173907A1
:100CC0004A075B0718F4112341F00AC08217930703
:100CD000A407B50740F4112319F061E070E005C0E6
:100CE0006FEF7FEF02C060E070E0CB011F910895CD
:100CF000DF93CF93CDB7DEB72A970FB6F894DEBF58
:100D00000FBECDBF8B836C838B819AE0692F0E94CD
:100D1000921F892F8A838B819AE0692F0E94921FEC
:100D200089838C81282F30E03A87298789859A85A5
:100D3000009739F029853A852130310509F476C0CC
:100D4000E4C08981282F30E038872F838F819885F0
:100D50008230910561F12F8138852330310534F4DB
:100D60008F8198858130910569F0CFC02F813885BA
:100D70002330310589F18F8198858430910509F4FC
:100D800040C0C3C0AAE3B0E0EAE3F0E08081482FAE
:100D90008A81282F30E081E090E0022E02C0880F87
:100DA000991F0A94E2F7809584238C93AEC0A7E341
:100DB000B0E0E7E3F0E08081482F8A81282F30E01F
:100DC00081E090E0022E02C0880F991F0A94E2F79A
:100DD000809584238C9399C0A4E3B0E0E4E3F0E031
:100DE0008081482F8A81282F30E081E090E0022E18
:100DF00002C0880F991F0A94E2F7809584238C9390
:100E000084C0A1E3B0E0E1E3F0E08081482F8A8173
:100E1000282F30E081E090E0022E02C0880F991F59
:100E20000A94E2F7809584238C936FC08981282FE0
:100E300030E03E832D838D819E818230910551F17A
:100E40002D813E812330310534F48D819E818130A6
:100E5000910561F05AC02D813E812330310571F139
:100E60008D819E8184309105E9F14FC0AAE3B0E005
:100E7000EAE3F0E08081482F8A81282F30E081E08A
:100E800090E0022E02C0880F991F0A94E2F7842B8B
:100E90008C933BC0A7E3B0E0E7E3F0E08081482F0C
:100EA0008A81282F30E081E090E0022E02C0880F76
:100EB000991F0A94E2F7842B8C9327C0A4E3B0E037
:100EC000E4E3F0E08081482F8A81282F30E081E040
:100ED00090E0022E02C0880F991F0A94E2F7842B3B
:100EE0008C9313C0A1E3B0E0E1E3F0E08081482FF0
:100EF0008A81282F30E081E090E0022E02C0880F26
:100F0000991F0A94E2F7842B8C932A960FB6F894D3
:100F1000DEBF0FBECDBFCF91DF910895DF93CF939A
:100F2000CDB7DEB72A970FB6F894DEBF0FBECDBFA0
:100F30008B836C838B819AE0692F0E94921F892F8B
:100F40008A838B819AE0692F0E94921F89838C810A
:100F5000282F30E03A87298789859A85009739F0CC
:100F600029853A852130310509F476C0E4C08981AC
:100F7000282F30E038872F838F8198858230910524
:100F800061F12F8138852330310534F48F819885C4
:100F90008130910569F0CFC02F813885233031052C
:100FA00089F18F8198858430910509F440C0C3C0D0
:100FB000ABE3B0E0EBE3F0E08081482F8A81282F9B
:100FC00030E081E090E0022E02C0880F991F0A9461
:100FD000E2F7809584238C93AEC0A8E3B0E0E8E309
:100FE000F0E08081482F8A81282F30E081E090E076
:100FF000022E02C0880F991F0A94E2F7809584237D
:101000008C9399C0A5E3B0E0E5E3F0E08081482F40
:101010008A81282F30E081E090E0022E02C0880F04
:10102000991F0A94E2F7809584238C9384C0A2E3ED
:10103000B0E0E2E3F0E08081482F8A81282F30E0A1
:1010400081E090E0022E02C0880F991F0A94E2F717
:10105000809584238C936FC08981282F30E03E8354
:101060002D838D819E818230910551F12D813E81AC
:101070002330310534F48D819E818130910561F0FA
:101080005AC02D813E812330310571F18D819E81C1
:1010900084309105E9F14FC0ABE3B0E0EBE3F0E061
:1010A0008081482F8A81282F30E081E090E0022E55
:1010B00002C0880F991F0A94E2F7842B8C933BC0DF
:1010C000A8E3B0E0E8E3F0E08081482F8A81282F90
:1010D00030E081E090E0022E02C0880F991F0A9450
:1010E000E2F7842B8C9327C0A5E3B0E0E5E3F0E0C2
:1010F0008081482F8A81282F30E081E090E0022E05
:1011000002C0880F991F0A94E2F7842B8C9313C0B6
:10111000A2E3B0E0E2E3F0E08081482F8A81282F4B
:1011200030E081E090E0022E02C0880F991F0A94FF
:10113000E2F7842B8C932A960FB6F894DEBF0FBE8D
:10114000CDBFCF91DF910895DF93CF9300D000D032
:101150000F92CDB7DEB78B838B819AE0692F0E9407
:10116000921F892F8A838B819AE0692F0E94921F98
:1011700089838981282F30E03D832C838C819D8158
:101180008230910551F12C813D812330310534F4B9
:101190008C819D818130910561F05AC02C813D8107
:1011A0002330310571F18C819D8184309105E9F105
:1011B0004FC0ABE3B0E0EBE3F0E08081482F8A81E1
:1011C000282F30E081E090E0022E02C0880F991FA6
:1011D0000A94E2F784278C933BC0A8E3B0E0E8E3ED
:1011E000F0E08081482F8A81282F30E081E090E074
:1011F000022E02C0880F991F0A94E2F784278C936D
:1012000027C0A5E3B0E0E5E3F0E08081482F8A81C4
:10121000282F30E081E090E0022E02C0880F991F55
:101220000A94E2F784278C9313C0A2E3B0E0E2E3D0
:10123000F0E08081482F8A81282F30E081E090E023
:10124000022E02C0880F991F0A94E2F784278C931C
:101250000F900F900F900F900F90CF91DF91089506
:10126000DF93CF9300D000D000D0CDB7DEB78C8312
:101270008C819AE0692F0E94921F892F8B838C8129
:101280009AE0692F0E94921F8A8319828A81282FEF
:1012900030E03E832D834D815E814230510541F126
:1012A0008D819E818330910534F42D813E812130E2
:1012B000310561F052C04D815E814330510551F1DD
:1012C0008D819E8184309105B9F147C0E9E3F0E05A
:1012D0008081282F30E08B81882F90E0A90102C007
:1012E000559547958A95E2F7CA018170898335C083
:1012F000E6E3F0E08081282F30E08B81882F90E0BA
:10130000A90102C0559547958A95E2F7CA018170F7
:10131000898323C0E3E3F0E08081282F30E08B81D4
:10132000882F90E0A90102C0559547958A95E2F76C
:10133000CA018170898311C0E0E3F0E08081282F29
:1013400030E08B81882F90E0A90102C05595479528
:101350008A95E2F7CA0181708983898126960FB642
:10136000F894DEBF0FBECDBFCF91DF910895DF931C
:10137000CF93CDB7DEB72A970FB6F894DEBF0FBE76
:10138000CDBF8B836C838B819AE0692F0E94921F63
:10139000892F8A838B819AE0692F0E94921F89830B
:1013A0008C81282F30E03A87298789859A85009794
:1013B00039F029853A852130310509F476C0E4C039
:1013C0008981282F30E038872F838F81988582305C
:1013D000910561F12F8138852330310534F48F81F7
:1013E00098858130910569F0CFC02F8138852330F1
:1013F000310589F18F8198858430910509F440C0C9
:10140000C3C0ABE3B0E0EBE3F0E08081482F8A811A
:10141000282F30E081E090E0022E02C0880F991F53
:101420000A94E2F7809584238C93AEC0A8E3B0E0E1
:10143000E8E3F0E08081482F8A81282F30E081E0C6
:1014400090E0022E02C0880F991F0A94E2F780955F
:1014500084238C9399C0A5E3B0E0E5E3F0E08081BC
:10146000482F8A81282F30E081E090E0022E02C0D0
:10147000880F991F0A94E2F7809584238C9384C087
:10148000A2E3B0E0E2E3F0E08081482F8A81282FD8
:1014900030E081E090E0022E02C0880F991F0A948C
:1014A000E2F7809584238C936FC08981282F30E0E8
:1014B0003E832D838D819E818230910551F12D8156
:1014C0003E812330310534F48D819E818130910538
:1014D00061F05AC02D813E812330310571F18D813B
:1014E0009E8184309105E9F14FC0ABE3B0E0EBE3BE
:1014F000F0E08081482F8A81282F30E081E090E061
:10150000022E02C0880F991F0A94E2F7842B8C9355
:101510003BC0A8E3B0E0E8E3F0E08081482F8A8197
:10152000282F30E081E090E0022E02C0880F991F42
:101530000A94E2F7842B8C9327C0A5E3B0E0E5E39F
:10154000F0E08081482F8A81282F30E081E090E010
:10155000022E02C0880F991F0A94E2F7842B8C9305
:1015600013C0A2E3B0E0E2E3F0E08081482F8A817B
:10157000282F30E081E090E0022E02C0880F991FF2
:101580000A94E2F7842B8C932A960FB6F894DEBF68
:101590000FBECDBFCF91DF910895DF93CF93CDB72D
:1015A000DEB7A7E2B0E0E7E2F0E080818F778C93CE
:1015B000A7E2B0E0E7E2F0E0808180648C93A7E2EC
:1015C000B0E0E7E2F0E080818F7D8C93A6E2B0E0AE
:1015D000E6E2F0E0808184608C93A6E2B0E0E6E28F
:1015E000F0E0808182608C93A6E2B0E0E6E2F0E079
:1015F000808181608C93A6E2B0E0E6E2F0E0808139
:1016000080628C93A6E2B0E0E6E2F0E08081806840
:101610008C93CF91DF910895DF93CF93CDB7DEB751
:1016200027970FB6F894DEBF0FBECDBF8D8319820A
:101630001A821B821C828D81282F30E03F832E83EB
:101640008E819F818330910509F49BC02E813F815B
:10165000243031058CF48E819F818130910509F40D
:1016600048C02E813F81223031050CF066C08E814A
:101670009F810097D1F038C12E813F8125303105FF
:1016800009F4C7C08E819F81853091050CF49DC0FF
:101690002E813F812630310509F4DFC08E819F8184
:1016A0008730910509F4FDC01FC1A7E2B0E0E7E271
:1016B000F0E080818F7E8C93A7E2B0E0E7E2F0E07B
:1016C0008081877F8C93A7E2B0E0E7E2F0E0808141
:1016D0008B7F8C93A7E2B0E0E7E2F0E080818D7F22
:1016E0008C93A7E2B0E0E7E2F0E080818E7F8C93FC
:1016F000FBC0A7E2B0E0E7E2F0E080818F7E8C9350
:10170000A7E2B0E0E7E2F0E08081877F8C93A7E278
:10171000B0E0E7E2F0E080818B7F8C93A7E2B0E05D
:10172000E7E2F0E080818D7F8C93A7E2B0E0E7E212
:10173000F0E0808181608C93D7C0A7E2B0E0E7E25F
:10174000F0E080818F7E8C93A7E2B0E0E7E2F0E0EA
:101750008081877F8C93A7E2B0E0E7E2F0E08081B0
:101760008B7F8C93A7E2B0E0E7E2F0E080818260BB
:101770008C93A7E2B0E0E7E2F0E080818E7F8C936B
:10178000B3C0A7E2B0E0E7E2F0E080818F7E8C9307
:10179000A7E2B0E0E7E2F0E08081877F8C93A7E2E8
:1017A000B0E0E7E2F0E080818B7F8C93A7E2B0E0CD
:1017B000E7E2F0E0808182608C93A7E2B0E0E7E2AC
:1017C000F0E0808181608C938FC0A7E2B0E0E7E217
:1017D000F0E080818F7E8C93A7E2B0E0E7E2F0E05A
:1017E0008081877F8C93A7E2B0E0E7E2F0E0808120
:1017F00084608C93A7E2B0E0E7E2F0E080818D7F27
:101800008C93A7E2B0E0E7E2F0E080818E7F8C93DA
:101810006BC0A7E2B0E0E7E2F0E080818F7E8C93BE
:10182000A7E2B0E0E7E2F0E08081877F8C93A7E257
:10183000B0E0E7E2F0E0808184608C93A7E2B0E062
:10184000E7E2F0E080818D7F8C93A7E2B0E0E7E2F1
:10185000F0E0808181608C9347C0A7E2B0E0E7E2CE
:10186000F0E080818F7E8C93A7E2B0E0E7E2F0E0C9
:101870008081877F8C93A7E2B0E0E7E2F0E080818F
:1018800084608C93A7E2B0E0E7E2F0E080818260C0
:101890008C93A7E2B0E0E7E2F0E080818E7F8C934A
:1018A00023C0A7E2B0E0E7E2F0E080818F7E8C9376
:1018B000A7E2B0E0E7E2F0E08081877F8C93A7E2C7
:1018C000B0E0E7E2F0E0808184608C93A7E2B0E0D2
:1018D000E7E2F0E0808182608C93A7E2B0E0E7E28B
:1018E000F0E0808181608C93A6E2B0E0E6E2F0E077
:1018F000808180648C9316C089819A81AB81BC8180
:101900000196A11DB11D89839A83AB83BC83E6E256
:10191000F0E0808182958F70882F90E081709070C8
:10192000882361F489819A81AB81BC8180302DE26A
:10193000920721E3A20721E0B207F0F2E4E2F0E02F
:101940008081918127960FB6F894DEBF0FBECDBF80
:10195000CF91DF910895DF93CF93CDB7DEB788E1C4
:1019600061E00E94780689E161E00E9478068AE1E0
:1019700061E00E9478068BE161E00E94780685E1D3
:1019800061E00E94780687E161E00E94780686E1C6
:1019900061E00E94780686E160E00E948E0783E3A2
:1019A0000E94DC0E82E30E94DC0E88E20E94DC0EC4
:1019B0008CE00E94DC0E81E00E94DC0E82E00E943E
:1019C000DC0ECF91DF910895DF93CF93CDB7DEB7D3
:1019D000E9970FB6F894DEBF0FBECDBF89AF85E1A2
:1019E00061E00E948E0789AD82958F700E948F12F0
:1019F00087E161E00E948E0780E090E0A0E8BFE30D
:101A00008DAB9EABAFABB8AF6DA97EA98FA998ADDA
:101A100020E030E04AE755E40E941702DC01CB01E8
:101A200089AB9AABABABBCAB69A97AA98BA99CA9D2
:101A300020E030E040E85FE30E94A10388232CF41B
:101A400081E090E098AB8FA73FC069A97AA98BA9E4
:101A50009CA920E03FEF4FE757E40E94410318168E
:101A60004CF56DA97EA98FA998AD20E030E040E249
:101A700051E40E941702DC01CB01BC01CD010E94A0
:101A80004100DC01CB0198AB8FA70FC080E991E04A
:101A90009EA78DA78DA59EA50197F1F79EA78DA75F
:101AA0008FA598A9019798AB8FA78FA598A90097A4
:101AB00069F714C069A97AA98BA99CA90E94410061
:101AC000DC01CB0198AB8FA78FA598A99CA78BA70A
:101AD0008BA59CA50197F1F79CA78BA787E160E0F8
:101AE0000E948E0780E090E0A0E8BFE38FA398A754
:101AF000A9A7BAA76FA178A589A59AA520E030E08B
:101B00004AE755E40E941702DC01CB018BA39CA39A
:101B1000ADA3BEA36BA17CA18DA19EA120E030E06E
:101B200040E85FE30E94A10388232CF481E090E069
:101B30009AA389A33FC06BA17CA18DA19EA120E0A7
:101B40003FEF4FE757E40E94410318164CF56FA191
:101B500078A589A59AA520E030E040E251E40E94F2
:101B60001702DC01CB01BC01CD010E944100DC0168
:101B7000CB019AA389A30FC080E991E098A38F8F2E
:101B80008F8D98A10197F1F798A38F8F89A19AA1C2
:101B900001979AA389A389A19AA1009769F714C014
:101BA0006BA17CA18DA19EA10E944100DC01CB0113
:101BB0009AA389A389A19AA19E8F8D8F8D8D9E8DC9
:101BC0000197F1F79E8F8D8F89AD0E948F1287E16B
:101BD00061E00E948E0780E090E0A0E8BFE3898F7B
:101BE0009A8FAB8FBC8F698D7A8D8B8D9C8D20E009
:101BF00030E04AE755E40E941702DC01CB018D8BEF
:101C00009E8BAF8BB88F6D897E898F89988D20E0F0
:101C100030E040E85FE30E94A10388232CF481E0D8
:101C200090E09C8B8B8B3FC06D897E898F89988DCE
:101C300020E03FEF4FE757E40E94410318164CF5B0
:101C4000698D7A8D8B8D9C8D20E030E040E251E4EF
:101C50000E941702DC01CB01BC01CD010E944100B2
:101C6000DC01CB019C8B8B8B0FC080E991E09A8BC0
:101C7000898B89899A890197F1F79A8B898B8B894E
:101C80009C8901979C8B8B8B8B899C89009769F72A
:101C900014C06D897E898F89988D0E944100DC0176
:101CA000CB019C8B8B8B8B899C89988B8F878F85A5
:101CB00098890197F1F7988B8F8787E160E00E9400
:101CC0008E0780E090E0A0E8BFE38B879C87AD871C
:101CD000BE876B857C858D859E8520E030E04AE758
:101CE00055E40E941702DC01CB018F839887A987F6
:101CF000BA876F81788589859A8520E030E040E851
:101D00005FE30E94A10388232CF481E090E09E838E
:101D10008D833FC06F81788589859A8520E03FEF6C
:101D20004FE757E40E94410318164CF56B857C85FC
:101D30008D859E8520E030E040E251E40E9417024C
:101D4000DC01CB01BC01CD010E944100DC01CB01D3
:101D50009E838D830FC080E991E09C838B838B8170
:101D60009C810197F1F79C838B838D819E810197E4
:101D70009E838D838D819E81009769F714C06F814A
:101D8000788589859A850E944100DC01CB019E837C
:101D90008D838D819E819A83898389819A81019720
:101DA000F1F79A838983E9960FB6F894DEBF0FBEE8
:101DB000CDBFCF91DF910895DF93CF93CDB7DEB73D
:101DC000E9970FB6F894DEBF0FBECDBF89AF85E1AE
:101DD00060E00E948E0789AD82958F700E948F12FD
:101DE00087E161E00E948E0780E090E0A0E8BFE319
:101DF0008DAB9EABAFABB8AF6DA97EA98FA998ADE7
:101E000020E030E04AE755E40E941702DC01CB01F4
:101E100089AB9AABABABBCAB69A97AA98BA99CA9DE
:101E200020E030E040E85FE30E94A10388232CF427
:101E300081E090E098AB8FA73FC069A97AA98BA9F0
:101E40009CA920E03FEF4FE757E40E94410318169A
:101E50004CF56DA97EA98FA998AD20E030E040E255
:101E600051E40E941702DC01CB01BC01CD010E94AC
:101E70004100DC01CB0198AB8FA70FC080E991E056
:101E80009EA78DA78DA59EA50197F1F79EA78DA76B
:101E90008FA598A9019798AB8FA78FA598A90097B0
:101EA00069F714C069A97AA98BA99CA90E9441006D
:101EB000DC01CB0198AB8FA78FA598A99CA78BA716
:101EC0008BA59CA50197F1F79CA78BA787E160E004
:101ED0000E948E0780E090E0A0E8BFE38FA398A760
:101EE000A9A7BAA76FA178A589A59AA520E030E097
:101EF0004AE755E40E941702DC01CB018BA39CA3A7
:101F0000ADA3BEA36BA17CA18DA19EA120E030E07A
:101F100040E85FE30E94A10388232CF481E090E075
:101F20009AA389A33FC06BA17CA18DA19EA120E0B3
:101F30003FEF4FE757E40E94410318164CF56FA19D
:101F400078A589A59AA520E030E040E251E40E94FE
:101F50001702DC01CB01BC01CD010E944100DC0174
:101F6000CB019AA389A30FC080E991E098A38F8F3A
:101F70008F8D98A10197F1F798A38F8F89A19AA1CE
:101F800001979AA389A389A19AA1009769F714C020
:101F90006BA17CA18DA19EA10E944100DC01CB011F
:101FA0009AA389A389A19AA19E8F8D8F8D8D9E8DD5
:101FB0000197F1F79E8F8D8F89AD0E948F1287E177
:101FC00061E00E948E0780E090E0A0E8BFE3898F87
:101FD0009A8FAB8FBC8F698D7A8D8B8D9C8D20E015
:101FE00030E04AE755E40E941702DC01CB018D8BFB
:101FF0009E8BAF8BB88F6D897E898F89988D20E0FD
:1020000030E040E85FE30E94A10388232CF481E0E4
:1020100090E09C8B8B8B3FC06D897E898F89988DDA
:1020200020E03FEF4FE757E40E94410318164CF5BC
:10203000698D7A8D8B8D9C8D20E030E040E251E4FB
:102040000E941702DC01CB01BC01CD010E944100BE
:10205000DC01CB019C8B8B8B0FC080E991E09A8BCC
:10206000898B89899A890197F1F79A8B898B8B895A
:102070009C8901979C8B8B8B8B899C89009769F736
:1020800014C06D897E898F89988D0E944100DC0182
:10209000CB019C8B8B8B8B899C89988B8F878F85B1
:1020A00098890197F1F7988B8F8787E160E00E940C
:1020B0008E0780E090E0A0E8BFE38B879C87AD8728
:1020C000BE876B857C858D859E8520E030E04AE764
:1020D00055E40E941702DC01CB018F839887A98702
:1020E000BA876F81788589859A8520E030E040E85D
:1020F0005FE30E94A10388232CF481E090E09E839B
:102100008D833FC06F81788589859A8520E03FEF78
:102110004FE757E40E94410318164CF56B857C8508
:102120008D859E8520E030E040E251E40E94170258
:10213000DC01CB01BC01CD010E944100DC01CB01DF
:102140009E838D830FC080E991E09C838B838B817C
:102150009C810197F1F79C838B838D819E810197F0
:102160009E838D838D819E81009769F714C06F8156
:10217000788589859A850E944100DC01CB019E8388
:102180008D838D819E819A83898389819A8101972C
:10219000F1F79A838983E9960FB6F894DEBF0FBEF4
:1021A000CDBFCF91DF910895DF93CF9300D00F92F1
:1021B000CDB7DEB79B838A8319820EC08981282F11
:1021C00030E08A819B81FC01E20FF31F80810E9435
:1021D000E40C89818F5F89838981282F30E08A818F
:1021E0009B81FC01E20FF31F8081882339F70F9058
:1021F0000F900F90CF91DF9108950F931F93DF936E
:10220000CF93CDB7DEB76D970FB6F894DEBF0FBE94
:10221000CDBF6A8F7B8F8C8F9D8F8FEF89876A8D63
:102220007B8D8C8D9D8D0E942F04DC01CB01992329
:1022300064F48A8D9B8DAC8DBD8DB0588A8F9B8F39
:10224000AC8FBD8F8DE20E94E40C6A8D7B8D8C8DEE
:102250009D8D0E942F04DC01CB01BC01CD010E94A9
:10226000D1039B01AC016A8D7B8D8C8D9D8D0E946D
:10227000B901DC01CB018D839E83AF83B88789854B
:102280008F5F89878985082F112707FD10956A8D33
:102290007B8D8C8D9D8D0E942F04DC01CB012AE06B
:1022A00030E040E050E0BC01CD010E94B11FDC01F4
:1022B000CB01282FCE010A96FC01E00FF11F2083ED
:1022C0006A8D7B8D8C8D9D8D0E942F04DC01CB014E
:1022D0002AE030E0B9010E949E1FCB01AA2797FD9A
:1022E000A095BA2FBC01CD010E94D103DC01CB0126
:1022F0008A8F9B8FAC8FBD8F6A8D7B8D8C8D9D8DD2
:102300000E942F04DC01CB01009709F0B8CF11C067
:102310008985282F332727FD3095CE010A96FC01A9
:10232000E20FF31F8081805D0E94E40C898581505B
:1023300089878985882364F76D817E818F8198855F
:1023400020E030E040E050E00E941103882309F4CF
:10235000B1C080E090E0A0E0B0E089839A83AB83D5
:10236000BC836D817E818F81988520E030E040E2E2
:1023700051E40E941702DC01CB018D839E83AF8361
:10238000B8876D817E818F8198850E942F04DC0142
:10239000CB01BC01CD010E94D1039B01AC016D8139
:1023A0007E818F8198850E94B901DC01CB018983F0
:1023B0009A83AB83BC8369817A818B819C8120E085
:1023C00030E040E251E40E941702DC01CB01898336
:1023D0009A83AB83BC8369817A818B819C810E94C3
:1023E0002F04DC01CB010097A105B10509F0B9CF9D
:1023F00089858F5F89878985082F112707FD1095AB
:102400006D817E818F8198850E942F04DC01CB0134
:102410002AE030E040E050E0BC01CD010E94B11F55
:10242000DC01CB01282FCE010A96FC01E00FF11F41
:1024300020836D817E818F8198850E942F04DC012D
:10244000CB012AE030E040E050E0BC01CD010E9429
:10245000B11FDA01C901BC01CD010E94D103DC0129
:10246000CB018D839E83AF83B8876D817E818F8101
:1024700098850E942F04DC01CB010097A105B105CE
:1024800009F0B6CF8EE20E94E40C11C08985282F96
:10249000332727FD3095CE010A96FC01E20FF31F8A
:1024A0008081805D0E94E40C8985815089878985BF
:1024B000882364F76D960FB6F894DEBF0FBECDBFCC
:1024C000CF91DF911F910F910895DF93CF9300D0AB
:1024D00000D0CDB7DEB78B836C8380E8898380EC36
:1024E0008A838B81282F30E0CE010196FC01E20F18
:1024F000F31F90818C81890F0E94DC0E0F900F904A
:102500000F900F90CF91DF910895DF93CF93CDB7C8
:10251000DEB781E00E94DC0ECF91DF910895DF935A
:10252000CF930F92CDB7DEB789838981982F9170B1
:1025300088E1692F0E948E0789818695982F917076
:1025400089E1692F0E948E07898186958695982F4B
:1025500091708AE1692F0E948E0789818695869500
:102560008695982F91708BE1692F0E948E070F90AE
:10257000CF91DF9108950F931F93DF93CF93CDB742
:10258000DEB7CC5DD0400FB6F894DEBF0FBECDBF36
:102590000E94AB0C0E94CD0AFE01E552FF4F118252
:1025A0001082FE01E752FF4F11821082FE01E952B4
:1025B000FF4F11821082FE01EB52FF4F11821082F9
:1025C000FE01ED52FF4F118210820E94851280E0C1
:1025D0000E940C0BFE01E552FF4F9183808384E043
:1025E0000E940C0BFE01E752FF4F9183808385E030
:1025F0000E940C0BFE01E952FF4F9183808386E01D
:102600000E940C0BFE01EB52FF4F9183808387E009
:102610000E940C0BFE01ED52FF4F91838083FE015F
:10262000E552FF4F808191818234910508F4E0C02A
:10263000FE01E752FF4F8081918121E08C379207A4
:1026400008F0D6C0FE01E952FF4F80819181E1E0A0
:1026500086389E0708F0CCC0FE01EB52FF4F808108
:102660009181F1E08D329F0708F4C2C0FE01ED5266
:10267000FF4F808191818739910508F4B9C080E6C8
:1026800090E00E94D410FE01E153FF4F80E090E003
:10269000AAEFB3E480839183A283B3838E010553B1
:1026A0001F4FFE01E153FF4F608171818281938151
:1026B00020E030E04AE755E40E941702DC01CB013C
:1026C000F80180839183A283B383FE01E553FF4F1A
:1026D000608171818281938120E030E040E85FE396
:1026E0000E94A103882344F4FE01E753FF4F81E0D9
:1026F00090E09183808364C0FE01E553FF4F6081C9
:1027000071818281938120E03FEF4FE757E40E947F
:10271000410318160CF043C0FE01E153FF4F6081E6
:1027200071818281938120E030E040E251E40E9497
:102730001702DC01CB018E0107531F4FBC01CD01F5
:102740000E944100DC01CB01F801918380831FC00E
:10275000FE01E953FF4F80E991E091838083FE0100
:10276000E953FF4F808191810197F1F7FE01E95311
:10277000FF4F91838083DE01A753BF4FFE01E753D4
:10278000FF4F80819181019711969C938E93FE015A
:10279000E753FF4F808191810097D1F616CF8E01CC
:1027A00007531F4FFE01E553FF4F60817181828106
:1027B00093810E944100DC01CB01F8019183808369
:1027C000DE01AB53BF4FFE01E753FF4F8081918184
:1027D00011969C938E93FE01EB53FF4F8081918164
:1027E0000197F1F7FE01EB53FF4F91838083EDCE0C
:1027F000FE01E552FF4F808191818234910508F4FA
:10280000E0C0FE01E752FF4F80819181F1E08C37FB
:102810009F0708F0D6C0FE01E952FF4F80819181E9
:1028200021E08738920708F4CCC0FE01EB52FF4F3D
:1028300080819181E1E08D329E0708F4C2C0FE01E3
:10284000ED52FF4F808191818739910508F4B9C01D
:102850008DE690E00E94D410FE01EF53FF4F80E020
:1028600090E0AAEFB3E480839183A283B3838E01C7
:1028700003541F4FFE01EF53FF4F6081718182812E
:10288000938120E030E04AE755E40E941702DC0122
:10289000CB01F80180839183A283B383FE01E354CB
:1028A000FF4F608171818281938120E030E040E8B8
:1028B0005FE30E94A103882344F4FE01E554FF4F27
:1028C00081E090E09183808364C0FE01E354FF4F78
:1028D000608171818281938120E03FEF4FE757E46F
:1028E0000E94410318160CF043C0FE01EF53FF4F46
:1028F000608171818281938120E030E040E251E487
:102900000E941702DC01CB018E0105541F4FBC0150
:10291000CD010E944100DC01CB01F801918380834D
:102920001FC0FE01E754FF4F80E991E0918380834F
:10293000FE01E754FF4F808191810197F1F7FE017D
:10294000E754FF4F91838083DE01A554BF4FFE0102
:10295000E554FF4F80819181019711969C938E934E
:10296000FE01E554FF4F808191810097D1F62DCE75
:102970008E0105541F4FFE01E354FF4F60817181AA
:10298000828193810E944100DC01CB01F801918397
:102990008083DE01A954BF4FFE01E554FF4F8081C3
:1029A000918111969C938E93FE01E954FF4F808193
:1029B00091810197F1F7FE01E954FF4F91838083E4
:1029C00004CEFE01E552FF4F808191818234910552
:1029D00008F4E0C0FE01E752FF4F80819181F1E0F1
:1029E0008C379F0708F0D6C0FE01E952FF4F808167
:1029F000918121E08638920708F0CCC0FE01EB52AD
:102A0000FF4F80819181E1E08C329E0708F0C2C0C7
:102A1000FE01ED52FF4F808191818739910508F4C5
:102A2000B9C080E790E00E94D410FE01ED54FF4F42
:102A300080E090E0AAEFB3E480839183A283B38324
:102A40008E0101551F4FFE01ED54FF4F60817181D2
:102A50008281938120E030E04AE755E40E9417022A
:102A6000DC01CB01F80180839183A283B383FE0153
:102A7000E155FF4F608171818281938120E030E0D8
:102A800040E85FE30E94A103882344F4FE01E3557C
:102A9000FF4F81E090E09183808364C0FE01E155A7
:102AA000FF4F608171818281938120E03FEF4FE78A
:102AB00057E40E94410318160CF043C0FE01ED5488
:102AC000FF4F608171818281938120E030E040E29C
:102AD00051E40E941702DC01CB018E0103551F4F08
:102AE000BC01CD010E944100DC01CB01F8019183C2
:102AF00080831FC0FE01E555FF4F80E991E091837F
:102B00008083FE01E555FF4F808191810197F1F7A8
:102B1000FE01E555FF4F91838083DE01A355BF4F32
:102B2000FE01E355FF4F80819181019711969C939F
:102B30008E93FE01E355FF4F808191810097D1F67E
:102B400044CD8E0103551F4FFE01E155FF4F6081BB
:102B50007181828193810E944100DC01CB01F801E7
:102B600091838083DE01A755BF4FFE01E355FF4FE0
:102B70008081918111969C938E93FE01E755FF4FC2
:102B8000808191810197F1F7FE01E755FF4F918315
:102B900080831BCDFE01E552FF4F808191818234FD
:102BA000910508F4E0C0FE01E752FF4F808191815A
:102BB000F1E08D379F0708F4D6C0FE01E952FF4FC0
:102BC0008081918121E08638920708F0CCC0FE0117
:102BD000EB52FF4F80819181E1E08D329E0708F436
:102BE000C2C0FE01ED52FF4F80819181873991056E
:102BF00008F4B9C089E790E00E94D410FE01EB55BB
:102C0000FF4F80E090E0AAEFB3E480839183A2833A
:102C1000B3838E010F551F4FFE01EB55FF4F6081AF
:102C200071818281938120E030E04AE755E40E947F
:102C30001702DC01CB01F80180839183A283B38367
:102C4000FE01EF55FF4F608171818281938120E009
:102C500030E040E85FE30E94A103882344F4FE01D2
:102C6000E156FF4F81E090E09183808364C0FE01D4
:102C7000EF55FF4F608171818281938120E03FEFAA
:102C80004FE757E40E94410318160CF043C0FE01C1
:102C9000EB55FF4F608171818281938120E030E0AC
:102CA00040E251E40E941702DC01CB018E01015683
:102CB0001F4FBC01CD010E944100DC01CB01F80196
:102CC000918380831FC0FE01E356FF4F80E991E0AE
:102CD00091838083FE01E356FF4F808191810197AC
:102CE000F1F7FE01E356FF4F91838083DE01A15689
:102CF000BF4FFE01E156FF4F8081918101971196F0
:102D00009C938E93FE01E156FF4F80819181009745
:102D1000D1F65BCC8E0101561F4FFE01EF55FF4FE0
:102D200060817181828193810E944100DC01CB012D
:102D3000F80191838083DE01A556BF4FFE01E15665
:102D4000FF4F8081918111969C938E93FE01E556F1
:102D5000FF4F808191810197F1F7FE01E556FF4F0A
:102D60009183808332CCFE01E552FF4F80819181B7
:102D70008234910508F4E0C0FE01E752FF4F8081E4
:102D80009181F1E08C379F0708F0D6C0FE01E9522F
:102D9000FF4F8081918121E08738920708F4CCC0F1
:102DA000FE01EB52FF4F80819181E1E08C329E0762
:102DB00008F0C2C0FE01ED52FF4F8081918187393A
:102DC000910508F4B9C08CE790E00E94D410FE0190
:102DD000E956FF4F80E090E0AAEFB3E4808391834F
:102DE000A283B3838E010D561F4FFE01E956FF4F9C
:102DF000608171818281938120E030E04AE755E46F
:102E00000E941702DC01CB01F80180839183A28329
:102E1000B383FE01ED56FF4F608171818281938102
:102E200020E030E040E85FE30E94A103882344F4FF
:102E3000FE01EF56FF4F81E090E09183808364C0F4
:102E4000FE01ED56FF4F608171818281938120E008
:102E50003FEF4FE757E40E94410318160CF043C0C0
:102E6000FE01E956FF4F608171818281938120E0EC
:102E700030E040E251E40E941702DC01CB018E01F8
:102E80000F561F4FBC01CD010E944100DC01CB0158
:102E9000F801918380831FC0FE01E157FF4F80E955
:102EA00091E091838083FE01E157FF4F8081918102
:102EB0000197F1F7FE01E157FF4F91838083DE0117
:102EC000AF56BF4FFE01EF56FF4F808191810197B2
:102ED00011969C938E93FE01EF56FF4F8081918156
:102EE0000097D1F672CB8E010F561F4FFE01ED56A3
:102EF000FF4F60817181828193810E944100DC01DA
:102F0000CB01F80191838083DE01A357BF4FFE01FF
:102F1000EF56FF4F8081918111969C938E93FE0115
:102F2000E357FF4F808191810197F1F7FE01E3574D
:102F3000FF4F9183808349CBFE01E552FF4F808193
:102F400091818134910508F0E0C0FE01E752FF4F06
:102F500080819181F1E08D379F0708F4D6C0FE0192
:102F6000E952FF4F8081918121E08738920708F470
:102F7000CCC0FE01EB52FF4F80819181E1E08D32A8
:102F80009E0708F4C2C0FE01ED52FF4F808191817F
:102F90008639910508F0B9C08DE890E00E94D41000
:102FA000FE01E757FF4F80E090E0AAEFB3E4808393
:102FB0009183A283B3838E010B571F4FFE01E75706
:102FC000FF4F608171818281938120E030E04AE788
:102FD00055E40E941702DC01CB01F8018083918344
:102FE000A283B383FE01EB57FF4F60817181828121
:102FF000938120E030E040E85FE30E94A103882352
:1030000044F4FE01ED57FF4F81E090E0918380830F
:1030100064C0FE01EB57FF4F608171818281938113
:1030200020E03FEF4FE757E40E94410318160CF0F1
:1030300043C0FE01E757FF4F608171818281938118
:1030400020E030E040E251E40E941702DC01CB01B5
:103050008E010D571F4FBC01CD010E944100DC01C4
:10306000CB01F801918380831FC0FE01EF57FF4F12
:1030700080E991E091838083FE01EF57FF4F8081CB
:1030800091810197F1F7FE01EF57FF4F9183808304
:10309000DE01AD57BF4FFE01ED57FF4F808191819B
:1030A000019711969C938E93FE01ED57FF4F8081FF
:1030B00091810097D1F689CA8E010D571F4FFE01ED
:1030C000EB57FF4F60817181828193810E944100A3
:1030D000DC01CB01F80191838083DE01A158BF4F51
:1030E000FE01ED57FF4F8081918111969C938E9345
:1030F000FE01E158FF4F808191810197F1F7FE01B8
:10310000E158FF4F9183808360CAFE01E552FF4F73
:10311000808191818134910508F0E0C0FE01E75281
:10312000FF4F80819181F1E08C379F0708F0D6C076
:10313000FE01E952FF4F8081918121E0873892079B
:1031400008F4CCC0FE01EB52FF4F80819181E1E099
:103150008D329E0708F4C2C0FE01ED52FF4F808100
:1031600091818739910508F4B9C080E990E00E9407
:10317000D410FE01E558FF4F80E090E0AAEFB3E4E1
:1031800080839183A283B3838E0109581F4FFE0170
:10319000E558FF4F608171818281938120E030E0AA
:1031A0004AE755E40E941702DC01CB01F801808355
:1031B0009183A283B383FE01E958FF4F608171813F
:1031C0008281938120E030E040E85FE30E94A10328
:1031D000882344F4FE01EB58FF4F81E090E0918397
:1031E000808364C0FE01E958FF4F60817181828154
:1031F000938120E03FEF4FE757E40E944103181608
:103200000CF043C0FE01E558FF4F6081718182815F
:10321000938120E030E040E251E40E941702DC019B
:10322000CB018E010B581F4FBC01CD010E94410004
:10323000DC01CB01F801918380831FC0FE01ED58B2
:10324000FF4F80E991E091838083FE01ED58FF4FAD
:10325000808191810197F1F7FE01ED58FF4F918335
:103260008083DE01AB58BF4FFE01EB58FF4F8081DA
:103270009181019711969C938E93FE01EB58FF4F1D
:10328000808191810097D1F6A0C98E010B581F4F04
:10329000FE01E958FF4F60817181828193810E9414
:1032A0004100DC01CB01F80191838083DE01AF583E
:1032B000BF4FFE01EB58FF4F8081918111969C9387
:1032C0008E93FE01EF58FF4F808191810197F1F7B6
:1032D000FE01EF58FF4F9183808377C9FE01E552CD
:1032E000FF4F808191818234910508F4E0C0FE0196
:1032F000E752FF4F80819181F1E08D379F0708F4FD
:10330000D6C0FE01E952FF4F8081918121E08738CC
:10331000920708F4CCC0FE01EB52FF4F80819181EF
:10332000E1E08D329E0708F4C2C0FE01ED52FF4F6E
:10333000808191818739910508F4B9C084E990E0D2
:103340000E94D410FE01E359FF4F80E090E0AAEF05
:10335000B3E480839183A283B3838E0107591F4F07
:10336000FE01E359FF4F608171818281938120E0EA
:1033700030E04AE755E40E941702DC01CB01F80176
:1033800080839183A283B383FE01E759FF4F60815D
:1033900071818281938120E030E040E85FE30E9408
:1033A000A103882344F4FE01E959FF4F81E090E036
:1033B0009183808364C0FE01E759FF4F6081718172
:1033C0008281938120E03FEF4FE757E40E94410361
:1033D00018160CF043C0FE01E359FF4F6081718164
:1033E0008281938120E030E040E251E40E941702A4
:1033F000DC01CB018E0109591F4FBC01CD010E9498
:103400004100DC01CB01F801918380831FC0FE01E4
:10341000EB59FF4F80E991E091838083FE01EB59E6
:10342000FF4F808191810197F1F7FE01EB59FF4F2A
:1034300091838083DE01A959BF4FFE01E959FF4FF7
:1034400080819181019711969C938E93FE01E95999
:10345000FF4F808191810097D1F6B7C88E0109593D
:103460001F4FFE01E759FF4F608171818281938177
:103470000E944100DC01CB01F80191838083DE01D1
:10348000AD59BF4FFE01E959FF4F808191811196DF
:103490009C938E93FE01ED59FF4F8081918101979E
:1034A000F1F7FE01ED59FF4F918380838EC8FE0135
:1034B000E552FF4F808191818234910508F4E2C08A
:1034C000FE01E752FF4F80819181F1E08C379F0729
:1034D00008F0D8C0FE01E952FF4F8081918121E0C0
:1034E0008638920708F0CEC0FE01EB52FF4F808174
:1034F0009181E1E08D329E0708F4C4C0FE01ED52D7
:10350000FF4F808191818739910508F4BBC088E91C
:1035100090E00E94D410FE01E15AFF4F80E090E05D
:10352000AAEFB3E480839183A283B3838E01055A0B
:103530001F4FFE01E15AFF4F6081718182819381AB
:1035400020E030E04AE755E40E941702DC01CB019D
:10355000F80180839183A283B383FE01E55AFF4F74
:10356000608171818281938120E030E040E85FE3F7
:103570000E94A103882344F4FE01E75AFF4F81E033
:1035800090E09183808365C0FE01E55AFF4F608122
:1035900071818281938120E03FEF4FE757E40E94E1
:1035A000410318160CF044C0FE01E15AFF4F608140
:1035B00071818281938120E030E040E251E40E94F9
:1035C0001702DC01CB018E01075A1F4FBC01CD0150
:1035D0000E944100DC01CB01F801918380831FC070
:1035E000FE01E95AFF4F80E991E091838083FE015B
:1035F000E95AFF4F808191810197F1F7FE01E95A65
:10360000FF4F91838083DE01A75ABF4FFE01E75A27
:10361000FF4F80819181019711969C938E93FE01BB
:10362000E75AFF4F808191810097D1F60C94E51203
:103630008E01075A1F4FFE01E55AFF4F60817181CD
:10364000828193810E944100DC01CB01F8019183CA
:103650008083DE01AB5ABF4FFE01E75AFF4F8081E6
:10366000918111969C938E93FE01EB5AFF4F8081BE
:1036700091810197F1F7FE01EB5AFF4F918380830F
:103680000C94E512FE01E552FF4F80819181813457
:10369000910508F0E2C0FE01E752FF4F8081918161
:1036A000F1E08D379F0708F4D8C0FE01E952FF4FC3
:1036B0008081918121E08738920708F4CEC0FE0115
:1036C000EB52FF4F80819181E1E08D329E0708F43B
:1036D000C4C0FE01ED52FF4F808191818739910571
:1036E00008F4BBC080EA90E00E94D410FE01EF5ABB
:1036F000FF4F80E090E0AAEFB3E480839183A28340
:10370000B3838E01035B1F4FFE01EF5AFF4F6081B1
:1037100071818281938120E030E04AE755E40E9484
:103720001702DC01CB01F80180839183A283B3836C
:10373000FE01E35BFF4F608171818281938120E014
:1037400030E040E85FE30E94A103882344F4FE01D7
:10375000E55BFF4F81E090E09183808365C0FE01CF
:10376000E35BFF4F608171818281938120E03FEFB5
:103770004FE757E40E94410318160CF044C0FE01C5
:10378000EF5AFF4F608171818281938120E030E0A8
:1037900040E251E40E941702DC01CB018E01055B7F
:1037A0001F4FBC01CD010E944100DC01CB01F8019B
:1037B000918380831FC0FE01E75BFF4F80E991E0AA
:1037C00091838083FE01E75BFF4F808191810197A8
:1037D000F1F7FE01E75BFF4F91838083DE01A55B7C
:1037E000BF4FFE01E55BFF4F8081918101971196EC
:1037F0009C938E93FE01E55BFF4F80819181009742
:10380000D1F60C94E5128E01055B1F4FFE01E35BC0
:10381000FF4F60817181828193810E944100DC01B0
:10382000CB01F80191838083DE01A95BBF4FFE01CC
:10383000E55BFF4F8081918111969C938E93FE01F1
:10384000E95BFF4F808191810197F1F7FE01E95B10
:10385000FF4F918380830C94E512FE01E552FF4FE8
:10386000808191818234910508F4B3C0FE01E75252
:10387000FF4F80819181F1E08C379F0708F0A9C04C
:10388000FE01E952FF4F8081918121E08738920744
:1038900008F49FC0FE01EB52FF4F80819181E1E06F
:1038A0008C329E0708F095C0FE01ED52FF4F8081DB
:1038B00091818639910508F08CC08BEA90E00E94D6
:1038C000D410FE01ED5BFF4F80E090E0AAEFB3E47F
:1038D00080839183A283B3838E01015C1F4FFE011D
:1038E000ED5BFF4F608171818281938120E030E048
:1038F0004AE755E40E941702DC01CB01F8018083FE
:103900009183A283B383FE01FF96608171818281DE
:10391000938120E030E040E85FE30E94A103882328
:103920002CF481E090E09EAF8DAF47C0FE01FF9682
:10393000608171818281938120E03FEF4FE757E4FE
:103940000E94410318166CF5FE01ED5BFF4F60818C
:1039500071818281938120E030E040E251E40E9455
:103960001702DC01CB01BC01CD010E944100DC014A
:10397000CB019EAF8DAF0FC080E991E09CAF8BAFC4
:103980008BAD9CAD0197F1F79CAF8BAF8DAD9EAD2C
:1039900001979EAF8DAF8DAD9EAD009769F70C94EA
:1039A000E512FE01FF9660817181828193810E9400
:1039B0004100DC01CB019EAF8DAF8DAD9EAD9AAFC6
:1039C00089AF89AD9AAD0197F1F79AAF89AF0C94A1
:1039D000E512FE01E552FF4F80819181813491050E
:1039E00008F0A0C0FE01E752FF4F80819181F1E015
:1039F0008C379F0708F096C0FE01E952FF4F808187
:103A0000918121E08638920708F08CC0FE01EB52CC
:103A1000FF4F80819181E1E08C329E0708F082C0E7
:103A2000FE01ED52FF4F808191818639910508F0AA
:103A300079C08BEB90E00E94D41080E090E0AAEF78
:103A4000B3E48DAB9EABAFABB8AF6DA97EA98FA928
:103A500098AD20E030E04AE755E40E941702DC010F
:103A6000CB0189AB9AABABABBCAB69A97AA98BA9EB
:103A70009CA920E030E040E85FE30E94A103882396
:103A80002CF481E090E098AB8FA740C069A97AA997
:103A90008BA99CA920E03FEF4FE757E40E94410328
:103AA000181654F56DA97EA98FA998AD20E030E0D5
:103AB00040E251E40E941702DC01CB01BC01CD01C0
:103AC0000E944100DC01CB0198AB8FA70FC080E9B9
:103AD00091E09EA78DA78DA59EA50197F1F79EA7C2
:103AE0008DA78FA598A9019798AB8FA78FA598A9A7
:103AF000009769F70C94E51269A97AA98BA99CA98A
:103B00000E944100DC01CB0198AB8FA78FA598A93B
:103B10009CA78BA78BA59CA50197F1F79CA78BA7CA
:103B20000C94E512FE01E552FF4F808191818234B1
:103B3000910508F4A0C0FE01E752FF4F80819181FA
:103B4000F1E08D379F0708F496C0FE01E952FF4F60
:103B50008081918121E08738920708F48CC0FE01B2
:103B6000EB52FF4F80819181E1E08C329E0708F09B
:103B700082C0FE01ED52FF4F80819181873991050E
:103B800008F479C083EC90E00E94D41080E090E0CB
:103B9000AAEFB3E48FA398A7A9A7BAA76FA178A5A6
:103BA00089A59AA520E030E04AE755E40E94170273
:103BB000DC01CB018BA39CA3ADA3BEA36BA17CA115
:103BC0008DA19EA120E030E040E85FE30E94A103C8
:103BD00088232CF481E090E09AA389A340C06BA1D4
:103BE0007CA18DA19EA120E03FEF4FE757E40E940A
:103BF0004103181654F56FA178A589A59AA520E070
:103C000030E040E251E40E941702DC01CB01BC012C
:103C1000CD010E944100DC01CB019AA389A30FC012
:103C200080E991E098A38F8F8F8D98A10197F1F78C
:103C300098A38F8F89A19AA101979AA389A389A19B
:103C40009AA1009769F70C94E5126BA17CA18DA154
:103C50009EA10E944100DC01CB019AA389A389A106
:103C60009AA19E8F8D8F8D8D9E8D0197F1F79E8FDE
:103C70008D8F0C94E512FE01E552FF4F80819181FA
:103C80008134910508F0A0C0FE01E752FF4F80810A
:103C90009181F1E08C379F0708F096C0FE01E95250
:103CA000FF4F8081918121E08738920708F48CC012
:103CB000FE01EB52FF4F80819181E1E08C329E0743
:103CC00008F082C0FE01ED52FF4F8081918186395C
:103CD000910508F079C08CE790E00E94D41080E054
:103CE00090E0AAEFB3E4898F9A8FAB8FBC8F698D78
:103CF0007A8D8B8D9C8D20E030E04AE755E40E9460
:103D00001702DC01CB018D8B9E8BAF8BB88F6D8939
:103D10007E898F89988D20E030E040E85FE30E9443
:103D2000A10388232CF481E090E09C8B8B8B40C016
:103D30006D897E898F89988D20E03FEF4FE757E4AA
:103D40000E944103181654F5698D7A8D8B8D9C8DD8
:103D500020E030E040E251E40E941702DC01CB0198
:103D6000BC01CD010E944100DC01CB019C8B8B8BFF
:103D70000FC080E991E09A8B898B89899A89019794
:103D8000F1F79A8B898B8B899C8901979C8B8B8B04
:103D90008B899C89009769F70C94E5126D897E895F
:103DA0008F89988D0E944100DC01CB019C8B8B8B0D
:103DB0008B899C89988B8F878F8598890197F1F7DC
:103DC000988B8F870C94E512FE01E552FF4F80819E
:103DD00091818134910510F00C94E512FE01E752B7
:103DE000FF4F80819181F1E08D379F0710F40C9493
:103DF000E512FE01E952FF4F8081918121E0873871
:103E0000920710F40C94E512FE01EB52FF4F8081F3
:103E10009181E1E08C329E0710F00C94E512FE01D6
:103E2000ED52FF4F808191818639910510F00C94FD
:103E3000E5128DEC90E00E94D41080E090E0AAEFB3
:103E4000B3E48B879C87AD87BE876B857C858D852A
:103E50009E8520E030E04AE755E40E941702DC012D
:103E6000CB018F839887A987BA876F8178858985E9
:103E70009A8520E030E040E85FE30E94A1038823B8
:103E80002CF481E090E09E838D8340C06F81788523
:103E900089859A8520E03FEF4FE757E40E94410370
:103EA000181654F56B857C858D859E8520E030E065
:103EB00040E251E40E941702DC01CB01BC01CD01BC
:103EC0000E944100DC01CB019E838D830FC080E9FD
:103ED00091E09C838B838B819C810197F1F79C837C
:103EE0008B838D819E8101979E838D838D819E81A1
:103EF000009769F70C94E5126F81788589859A851A
:103F00000E944100DC01CB019E838D838D819E81C7
:103F10009A83898389819A810197F1F79A838983AA
:103F20000C94E512991B79E004C0991F961708F0CC
:103F3000961B881F7A95C9F78095089597FB092EDF
:103F400007260AD077FD04D027D006D000201AF427
:103F5000709561957F4F0895F6F7909581959F4FE5
:103F6000089597FB092E05260ED057FD04D028D0C2
:103F70000AD0001C38F450954095309521953F4F5C
:103F80004F4F5F4F0895F6F7909580957095619526
:103F90007F4F8F4F9F4F0895AA1BBB1B51E107C056
:103FA000AA1FBB1FA617B70710F0A61BB70B881FC9
:103FB000991F5A95A9F780959095BC01CD01089558
:103FC000A1E21A2EAA1BBB1BFD010DC0AA1FBB1F1D
:103FD000EE1FFF1FA217B307E407F50720F0A21B8F
:103FE000B30BE40BF50B661F771F881F991F1A94FC
:103FF00069F760957095809590959B01AC01BD0126
:10400000CF0108952F923F924F925F926F927F92CD
:104010008F929F92AF92BF92CF92DF92EF92FF92D8
:104020000F931F93CF93DF93CDB7DEB7CA1BDB0B84
:104030000FB6F894DEBF0FBECDBF09942A88398829
:1040400048885F846E847D848C849B84AA84B98430
:10405000C884DF80EE80FD800C811B81AA81B9813C
:10406000CE0FD11D0FB6F894DEBF0FBECDBFED0150
:064070000895F894FFCF53
:104076004E6F20746F2052616369736D004869004A
:104086004675636B20596F75004F4B004E6963652B
:1040960020746F206D65657420796F75004E6F0012
:1040A600596573004269670043616C6C206D650059
:1040B60049206C6F766520796F75004D61792049CE
:1040C6002068656C7020796F753F00506572666573
:1040D60063740042616E672042616E6700536565D6
:1040E60020796F75206C6174657200000000000015
:1040F6000000000001020203030303040404040495
:10410600040404050505050505050505050505055C
:10411600050505060606060606060606060606063C
:104126000606060606060606060606060606060629
:10413600060606070707070707070707070707070C
:1041460007070707070707070707070707070707F9
:1041560007070707070707070707070707070707E9
:1041660007070707070707070707070707070707D9
:1041760007070708080808080808080808080808BC
:1041860008080808080808080808080808080808A9
:104196000808080808080808080808080808080899
:1041A6000808080808080808080808080808080889
:1041B6000808080808080808080808080808080879
:1041C6000808080808080808080808080808080869
:1041D6000808080808080808080808080808080859
:1041E6000808080808080808080808080808080849
:0441F60008080800AD
:00000001FF
